{
  "_format": "hh-sol-artifact-1",
  "contractName": "ERC721Factory",
  "sourceName": "contracts/ERC721Factory.sol",
  "abi": [
    {
      "inputs": [
        {
          "internalType": "address",
          "name": "_base721Address",
          "type": "address"
        },
        {
          "internalType": "address",
          "name": "_base20Address",
          "type": "address"
        }
      ],
      "stateMutability": "nonpayable",
      "type": "constructor"
    },
    {
      "anonymous": false,
      "inputs": [
        {
          "indexed": true,
          "internalType": "address",
          "name": "_baseAddress",
          "type": "address"
        },
        {
          "indexed": false,
          "internalType": "bool",
          "name": "_isActive",
          "type": "bool"
        }
      ],
      "name": "Base721Added",
      "type": "event"
    },
    {
      "anonymous": false,
      "inputs": [
        {
          "indexed": false,
          "internalType": "address",
          "name": "contractAddress",
          "type": "address"
        },
        {
          "indexed": false,
          "internalType": "address",
          "name": "contractOwner",
          "type": "address"
        },
        {
          "indexed": false,
          "internalType": "string",
          "name": "name",
          "type": "string"
        },
        {
          "indexed": false,
          "internalType": "string",
          "name": "symbol",
          "type": "string"
        }
      ],
      "name": "ERC20ContractDeployed",
      "type": "event"
    },
    {
      "anonymous": false,
      "inputs": [
        {
          "indexed": false,
          "internalType": "address",
          "name": "instance",
          "type": "address"
        }
      ],
      "name": "InstanceDeployed",
      "type": "event"
    },
    {
      "anonymous": false,
      "inputs": [
        {
          "indexed": false,
          "internalType": "address",
          "name": "newTokenAddress",
          "type": "address"
        },
        {
          "indexed": false,
          "internalType": "address",
          "name": "templateAddress",
          "type": "address"
        },
        {
          "indexed": false,
          "internalType": "string",
          "name": "tokenName",
          "type": "string"
        },
        {
          "indexed": false,
          "internalType": "address",
          "name": "admin",
          "type": "address"
        },
        {
          "indexed": false,
          "internalType": "string",
          "name": "symbol",
          "type": "string"
        },
        {
          "indexed": false,
          "internalType": "string",
          "name": "tokenURI",
          "type": "string"
        }
      ],
      "name": "NFTCreated",
      "type": "event"
    },
    {
      "anonymous": false,
      "inputs": [
        {
          "indexed": true,
          "internalType": "address",
          "name": "previousOwner",
          "type": "address"
        },
        {
          "indexed": true,
          "internalType": "address",
          "name": "newOwner",
          "type": "address"
        }
      ],
      "name": "OwnershipTransferred",
      "type": "event"
    },
    {
      "stateMutability": "payable",
      "type": "fallback"
    },
    {
      "inputs": [
        {
          "internalType": "address",
          "name": "dtaddress_",
          "type": "address"
        },
        {
          "internalType": "uint256",
          "name": "amount",
          "type": "uint256"
        }
      ],
      "name": "accumulateToken",
      "outputs": [
        {
          "internalType": "bool",
          "name": "",
          "type": "bool"
        }
      ],
      "stateMutability": "nonpayable",
      "type": "function"
    },
    {
      "inputs": [
        {
          "internalType": "uint256",
          "name": "",
          "type": "uint256"
        }
      ],
      "name": "accumulatederc20",
      "outputs": [
        {
          "internalType": "address",
          "name": "",
          "type": "address"
        }
      ],
      "stateMutability": "view",
      "type": "function"
    },
    {
      "inputs": [
        {
          "components": [
            {
              "internalType": "string",
              "name": "name",
              "type": "string"
            },
            {
              "internalType": "string",
              "name": "symbol",
              "type": "string"
            },
            {
              "internalType": "string",
              "name": "tokenURI",
              "type": "string"
            },
            {
              "internalType": "string",
              "name": "dt_name",
              "type": "string"
            },
            {
              "internalType": "string",
              "name": "dt_symbol",
              "type": "string"
            },
            {
              "internalType": "uint256",
              "name": "maxSupply_",
              "type": "uint256"
            }
          ],
          "internalType": "struct ERC721Factory.PublishData",
          "name": "_publishData",
          "type": "tuple"
        }
      ],
      "name": "burnToMint",
      "outputs": [
        {
          "internalType": "address",
          "name": "erc721token",
          "type": "address"
        }
      ],
      "stateMutability": "nonpayable",
      "type": "function"
    },
    {
      "inputs": [
        {
          "internalType": "address",
          "name": "",
          "type": "address"
        }
      ],
      "name": "createdERC20List",
      "outputs": [
        {
          "internalType": "address",
          "name": "",
          "type": "address"
        }
      ],
      "stateMutability": "view",
      "type": "function"
    },
    {
      "inputs": [
        {
          "internalType": "address",
          "name": "",
          "type": "address"
        }
      ],
      "name": "createdERC721List",
      "outputs": [
        {
          "internalType": "address",
          "name": "",
          "type": "address"
        }
      ],
      "stateMutability": "view",
      "type": "function"
    },
    {
      "inputs": [],
      "name": "debugstring",
      "outputs": [
        {
          "internalType": "string",
          "name": "",
          "type": "string"
        }
      ],
      "stateMutability": "view",
      "type": "function"
    },
    {
      "inputs": [
        {
          "internalType": "address",
          "name": "_logic",
          "type": "address"
        }
      ],
      "name": "deploy",
      "outputs": [
        {
          "internalType": "address",
          "name": "instance",
          "type": "address"
        }
      ],
      "stateMutability": "nonpayable",
      "type": "function"
    },
    {
      "inputs": [
        {
          "internalType": "string",
          "name": "name_",
          "type": "string"
        },
        {
          "internalType": "string",
          "name": "symbol_",
          "type": "string"
        },
        {
          "internalType": "address",
          "name": "owner_",
          "type": "address"
        },
        {
          "internalType": "address",
          "name": "erc721address_",
          "type": "address"
        },
        {
          "internalType": "uint256",
          "name": "maxSupply_",
          "type": "uint256"
        },
        {
          "internalType": "bool",
          "name": "is_from_all_inOne",
          "type": "bool"
        }
      ],
      "name": "deployERC20Contract",
      "outputs": [
        {
          "internalType": "address",
          "name": "erc20Instance",
          "type": "address"
        }
      ],
      "stateMutability": "nonpayable",
      "type": "function"
    },
    {
      "inputs": [
        {
          "components": [
            {
              "internalType": "string",
              "name": "name",
              "type": "string"
            },
            {
              "internalType": "string",
              "name": "symbol",
              "type": "string"
            },
            {
              "internalType": "string",
              "name": "tokenURI",
              "type": "string"
            },
            {
              "internalType": "string",
              "name": "dt_name",
              "type": "string"
            },
            {
              "internalType": "string",
              "name": "dt_symbol",
              "type": "string"
            },
            {
              "internalType": "uint256",
              "name": "maxSupply_",
              "type": "uint256"
            }
          ],
          "internalType": "struct ERC721Factory.PublishData",
          "name": "_publishData",
          "type": "tuple"
        }
      ],
      "name": "deployERC721Contract",
      "outputs": [
        {
          "internalType": "address",
          "name": "erc721Instance",
          "type": "address"
        }
      ],
      "stateMutability": "nonpayable",
      "type": "function"
    },
    {
      "inputs": [
        {
          "internalType": "address",
          "name": "",
          "type": "address"
        }
      ],
      "name": "eRC20_to_amount",
      "outputs": [
        {
          "internalType": "uint256",
          "name": "",
          "type": "uint256"
        }
      ],
      "stateMutability": "view",
      "type": "function"
    },
    {
      "inputs": [
        {
          "internalType": "address",
          "name": "",
          "type": "address"
        }
      ],
      "name": "eRC20_to_owner",
      "outputs": [
        {
          "internalType": "address",
          "name": "",
          "type": "address"
        }
      ],
      "stateMutability": "view",
      "type": "function"
    },
    {
      "inputs": [
        {
          "internalType": "address",
          "name": "",
          "type": "address"
        }
      ],
      "name": "eRC721_to_owner",
      "outputs": [
        {
          "internalType": "address",
          "name": "",
          "type": "address"
        }
      ],
      "stateMutability": "view",
      "type": "function"
    },
    {
      "inputs": [
        {
          "internalType": "uint256",
          "name": "",
          "type": "uint256"
        }
      ],
      "name": "erc20addresses",
      "outputs": [
        {
          "internalType": "address",
          "name": "",
          "type": "address"
        }
      ],
      "stateMutability": "view",
      "type": "function"
    },
    {
      "inputs": [
        {
          "internalType": "uint256",
          "name": "",
          "type": "uint256"
        }
      ],
      "name": "erc721addresses",
      "outputs": [
        {
          "internalType": "address",
          "name": "",
          "type": "address"
        }
      ],
      "stateMutability": "view",
      "type": "function"
    },
    {
      "inputs": [],
      "name": "getAllDTCreatedAddress",
      "outputs": [
        {
          "internalType": "address[]",
          "name": "",
          "type": "address[]"
        }
      ],
      "stateMutability": "view",
      "type": "function"
    },
    {
      "inputs": [],
      "name": "getAllNFTCreatedAddress",
      "outputs": [
        {
          "internalType": "address[]",
          "name": "",
          "type": "address[]"
        }
      ],
      "stateMutability": "view",
      "type": "function"
    },
    {
      "inputs": [],
      "name": "getBase20ContractAddress",
      "outputs": [
        {
          "internalType": "address",
          "name": "",
          "type": "address"
        }
      ],
      "stateMutability": "view",
      "type": "function"
    },
    {
      "inputs": [],
      "name": "getBase721ContractAddress",
      "outputs": [
        {
          "internalType": "address",
          "name": "",
          "type": "address"
        }
      ],
      "stateMutability": "view",
      "type": "function"
    },
    {
      "inputs": [
        {
          "internalType": "address",
          "name": "creator",
          "type": "address"
        }
      ],
      "name": "getNFTCreatedAddress",
      "outputs": [
        {
          "internalType": "address[]",
          "name": "ret",
          "type": "address[]"
        }
      ],
      "stateMutability": "view",
      "type": "function"
    },
    {
      "inputs": [],
      "name": "getNFTCreatedCount",
      "outputs": [
        {
          "internalType": "uint256",
          "name": "",
          "type": "uint256"
        }
      ],
      "stateMutability": "view",
      "type": "function"
    },
    {
      "inputs": [],
      "name": "getaccumulatederc20Address",
      "outputs": [
        {
          "internalType": "address[]",
          "name": "",
          "type": "address[]"
        }
      ],
      "stateMutability": "view",
      "type": "function"
    },
    {
      "inputs": [
        {
          "internalType": "address",
          "name": "tokenaddress",
          "type": "address"
        }
      ],
      "name": "getaccumulatederc20OfAddress",
      "outputs": [
        {
          "internalType": "uint256",
          "name": "amount",
          "type": "uint256"
        }
      ],
      "stateMutability": "view",
      "type": "function"
    },
    {
      "inputs": [],
      "name": "getadebugstring",
      "outputs": [
        {
          "internalType": "string",
          "name": "",
          "type": "string"
        }
      ],
      "stateMutability": "view",
      "type": "function"
    },
    {
      "inputs": [],
      "name": "owner",
      "outputs": [
        {
          "internalType": "address",
          "name": "",
          "type": "address"
        }
      ],
      "stateMutability": "view",
      "type": "function"
    },
    {
      "inputs": [
        {
          "components": [
            {
              "internalType": "string",
              "name": "name",
              "type": "string"
            },
            {
              "internalType": "string",
              "name": "symbol",
              "type": "string"
            },
            {
              "internalType": "string",
              "name": "tokenURI",
              "type": "string"
            },
            {
              "internalType": "string",
              "name": "dt_name",
              "type": "string"
            },
            {
              "internalType": "string",
              "name": "dt_symbol",
              "type": "string"
            },
            {
              "internalType": "uint256",
              "name": "maxSupply_",
              "type": "uint256"
            }
          ],
          "internalType": "struct ERC721Factory.PublishData",
          "name": "_publishData",
          "type": "tuple"
        }
      ],
      "name": "publishAllinOne",
      "outputs": [
        {
          "internalType": "address",
          "name": "erc721token",
          "type": "address"
        }
      ],
      "stateMutability": "nonpayable",
      "type": "function"
    },
    {
      "inputs": [],
      "name": "renounceOwnership",
      "outputs": [],
      "stateMutability": "nonpayable",
      "type": "function"
    },
    {
      "inputs": [
        {
          "internalType": "address",
          "name": "newOwner",
          "type": "address"
        }
      ],
      "name": "transferOwnership",
      "outputs": [],
      "stateMutability": "nonpayable",
      "type": "function"
    },
    {
      "stateMutability": "payable",
      "type": "receive"
    }
  ],
  "bytecode": "0x608060405234801561001057600080fd5b50604051614c75380380614c758339818101604052810190610032919061073f565b61004e61004361016160201b60201c565b61016960201b60201c565b600073ffffffffffffffffffffffffffffffffffffffff168273ffffffffffffffffffffffffffffffffffffffff16036100bd576040517f08c379a00000000000000000000000000000000000000000000000000000000081526004016100b490610802565b60405180910390fd5b600073ffffffffffffffffffffffffffffffffffffffff168173ffffffffffffffffffffffffffffffffffffffff160361012c576040517f08c379a000000000000000000000000000000000000000000000000000000000815260040161012390610802565b60405180910390fd5b6000600181905550600060088190555061014b8261022d60201b60201c565b61015a8161041a60201b60201c565b50506109e8565b600033905090565b60008060009054906101000a900473ffffffffffffffffffffffffffffffffffffffff169050816000806101000a81548173ffffffffffffffffffffffffffffffffffffffff021916908373ffffffffffffffffffffffffffffffffffffffff1602179055508173ffffffffffffffffffffffffffffffffffffffff168173ffffffffffffffffffffffffffffffffffffffff167f8be0079c531659141344cd1fd0a4f28419497f9722a3daafe3b4186f6b6457e060405160405180910390a35050565b61023b61060760201b60201c565b600073ffffffffffffffffffffffffffffffffffffffff168173ffffffffffffffffffffffffffffffffffffffff16036102aa576040517f08c379a00000000000000000000000000000000000000000000000000000000081526004016102a190610894565b60405180910390fd5b6102b98161069160201b60201c565b6102f8576040517f08c379a00000000000000000000000000000000000000000000000000000000081526004016102ef90610926565b60405180910390fd5b60405180604001604052808273ffffffffffffffffffffffffffffffffffffffff16815260200160011515815250600c60008201518160000160006101000a81548173ffffffffffffffffffffffffffffffffffffffff021916908373ffffffffffffffffffffffffffffffffffffffff16021790555060208201518160000160146101000a81548160ff021916908315150217905550905050600c60000160009054906101000a900473ffffffffffffffffffffffffffffffffffffffff1673ffffffffffffffffffffffffffffffffffffffff167f613fb6702f05dcf998e225eaea1cdff4f649bce43a6b0907bfa454c0e1977df9600c60000160149054906101000a900460ff1660405161040f9190610961565b60405180910390a250565b61042861060760201b60201c565b600073ffffffffffffffffffffffffffffffffffffffff168173ffffffffffffffffffffffffffffffffffffffff1603610497576040517f08c379a000000000000000000000000000000000000000000000000000000000815260040161048e90610894565b60405180910390fd5b6104a68161069160201b60201c565b6104e5576040517f08c379a00000000000000000000000000000000000000000000000000000000081526004016104dc90610926565b60405180910390fd5b60405180604001604052808273ffffffffffffffffffffffffffffffffffffffff16815260200160011515815250600d60008201518160000160006101000a81548173ffffffffffffffffffffffffffffffffffffffff021916908373ffffffffffffffffffffffffffffffffffffffff16021790555060208201518160000160146101000a81548160ff021916908315150217905550905050600d60000160009054906101000a900473ffffffffffffffffffffffffffffffffffffffff1673ffffffffffffffffffffffffffffffffffffffff167f613fb6702f05dcf998e225eaea1cdff4f649bce43a6b0907bfa454c0e1977df9600d60000160149054906101000a900460ff166040516105fc9190610961565b60405180910390a250565b61061561016160201b60201c565b73ffffffffffffffffffffffffffffffffffffffff166106396106b360201b60201c565b73ffffffffffffffffffffffffffffffffffffffff161461068f576040517f08c379a0000000000000000000000000000000000000000000000000000000008152600401610686906109c8565b60405180910390fd5b565b60006106a161060760201b60201c565b6000823b905060008111915050919050565b60008060009054906101000a900473ffffffffffffffffffffffffffffffffffffffff16905090565b600080fd5b600073ffffffffffffffffffffffffffffffffffffffff82169050919050565b600061070c826106e1565b9050919050565b61071c81610701565b811461072757600080fd5b50565b60008151905061073981610713565b92915050565b60008060408385031215610756576107556106dc565b5b60006107648582860161072a565b92505060206107758582860161072a565b9150509250929050565b600082825260208201905092915050565b7f496e76616c6964204552433732314261736520636f6e7472616374206164647260008201527f6573730000000000000000000000000000000000000000000000000000000000602082015250565b60006107ec60238361077f565b91506107f782610790565b604082019050919050565b6000602082019050818103600083015261081b816107df565b9050919050565b7f41646472657373283029204e4f5420616c6c6f77656420666f7220626173652060008201527f4e4654636f6e7472616374000000000000000000000000000000000000000000602082015250565b600061087e602b8361077f565b915061088982610822565b604082019050919050565b600060208201905081810360008301526108ad81610871565b9050919050565b7f50726f76696465642061646472657373206973204e4f54206120636f6e74726160008201527f6374000000000000000000000000000000000000000000000000000000000000602082015250565b600061091060228361077f565b915061091b826108b4565b604082019050919050565b6000602082019050818103600083015261093f81610903565b9050919050565b60008115159050919050565b61095b81610946565b82525050565b60006020820190506109766000830184610952565b92915050565b7f4f776e61626c653a2063616c6c6572206973206e6f7420746865206f776e6572600082015250565b60006109b260208361077f565b91506109bd8261097c565b602082019050919050565b600060208201905081810360008301526109e1816109a5565b9050919050565b61427e806109f76000396000f3fe6080604052600436106101a05760003560e01c806380dfe2b7116100ec578063eb32c4291161008a578063f2395fb211610064578063f2395fb214610668578063f2fde38b14610693578063f34e086f146106bc578063fcc1ca60146106f9576101a1565b8063eb32c429146105b1578063ec24f1fa146105ee578063ed63b8981461062b576101a1565b8063ade805cf116100c6578063ade805cf146104e1578063b0883dd11461050c578063b7bad47514610549578063dfe845d514610586576101a1565b806380dfe2b71461043c5780638da5cb5b146104795780639528672b146104a4576101a1565b80634c96a389116101595780636d1d24b3116101335780636d1d24b314610380578063715018a6146103ab578063778ea461146103c25780637b10f191146103ff576101a1565b80634c96a389146102db57806356f4691214610318578063613543d214610343576101a1565b8063011388e2146101a3578063062ac90f146101e05780631fa8749a1461021d57806332f43b9e146102485780633b4ac514146102855780633e20e855146102b0576101a1565b5b005b3480156101af57600080fd5b506101ca60048036038101906101c5919061299b565b610736565b6040516101d791906129e1565b60405180910390f35b3480156101ec57600080fd5b5061020760048036038101906102029190612ba6565b61077f565b6040516102149190612c7a565b60405180910390f35b34801561022957600080fd5b50610232610f1b565b60405161023f9190612d14565b60405180910390f35b34801561025457600080fd5b5061026f600480360381019061026a919061299b565b610fad565b60405161027c9190612c7a565b60405180910390f35b34801561029157600080fd5b5061029a610fe0565b6040516102a79190612df4565b60405180910390f35b3480156102bc57600080fd5b506102c561106e565b6040516102d29190612df4565b60405180910390f35b3480156102e757600080fd5b5061030260048036038101906102fd919061299b565b6110fc565b60405161030f9190612c7a565b60405180910390f35b34801561032457600080fd5b5061032d61119d565b60405161033a91906129e1565b60405180910390f35b34801561034f57600080fd5b5061036a6004803603810190610365919061299b565b6111a7565b6040516103779190612df4565b60405180910390f35b34801561038c57600080fd5b50610395611326565b6040516103a29190612d14565b60405180910390f35b3480156103b757600080fd5b506103c06113b4565b005b3480156103ce57600080fd5b506103e960048036038101906103e4919061299b565b6113c8565b6040516103f69190612c7a565b60405180910390f35b34801561040b57600080fd5b5061042660048036038101906104219190612f4c565b6113fb565b6040516104339190612c7a565b60405180910390f35b34801561044857600080fd5b50610463600480360381019061045e9190612f95565b6118bb565b6040516104709190612c7a565b60405180910390f35b34801561048557600080fd5b5061048e6118fa565b60405161049b9190612c7a565b60405180910390f35b3480156104b057600080fd5b506104cb60048036038101906104c69190612f95565b611923565b6040516104d89190612c7a565b60405180910390f35b3480156104ed57600080fd5b506104f6611962565b6040516105039190612c7a565b60405180910390f35b34801561051857600080fd5b50610533600480360381019061052e919061299b565b61198f565b60405161054091906129e1565b60405180910390f35b34801561055557600080fd5b50610570600480360381019061056b919061299b565b6119a7565b60405161057d9190612c7a565b60405180910390f35b34801561059257600080fd5b5061059b6119da565b6040516105a89190612c7a565b60405180910390f35b3480156105bd57600080fd5b506105d860048036038101906105d3919061299b565b611a07565b6040516105e59190612c7a565b60405180910390f35b3480156105fa57600080fd5b5061061560048036038101906106109190612f4c565b611a3a565b6040516106229190612c7a565b60405180910390f35b34801561063757600080fd5b50610652600480360381019061064d9190612f95565b611c0b565b60405161065f9190612c7a565b60405180910390f35b34801561067457600080fd5b5061067d611c4a565b60405161068a9190612df4565b60405180910390f35b34801561069f57600080fd5b506106ba60048036038101906106b5919061299b565b611cd8565b005b3480156106c857600080fd5b506106e360048036038101906106de9190612f4c565b611d5b565b6040516106f09190612c7a565b60405180910390f35b34801561070557600080fd5b50610720600480360381019061071b9190612fc2565b612320565b60405161072d9190613011565b60405180910390f35b6000600960008373ffffffffffffffffffffffffffffffffffffffff1673ffffffffffffffffffffffffffffffffffffffff168152602001908152602001600020549050919050565b60008073ffffffffffffffffffffffffffffffffffffffff163373ffffffffffffffffffffffffffffffffffffffff16036107ef576040517f08c379a00000000000000000000000000000000000000000000000000000000081526004016107e690613078565b60405180910390fd5b8115610a0257600260008573ffffffffffffffffffffffffffffffffffffffff1673ffffffffffffffffffffffffffffffffffffffff16815260200190815260200160002060009054906101000a900473ffffffffffffffffffffffffffffffffffffffff1673ffffffffffffffffffffffffffffffffffffffff16635245f3bd6040518163ffffffff1660e01b8152600401602060405180830381865afa15801561089f573d6000803e3d6000fd5b505050506040513d601f19601f820116820180604052508101906108c391906130ad565b73ffffffffffffffffffffffffffffffffffffffff168573ffffffffffffffffffffffffffffffffffffffff1614610930576040517f08c379a00000000000000000000000000000000000000000000000000000000081526004016109279061314c565b60405180910390fd5b8373ffffffffffffffffffffffffffffffffffffffff16600260008673ffffffffffffffffffffffffffffffffffffffff1673ffffffffffffffffffffffffffffffffffffffff16815260200190815260200160002060009054906101000a900473ffffffffffffffffffffffffffffffffffffffff1673ffffffffffffffffffffffffffffffffffffffff16146109fd576040517f08c379a00000000000000000000000000000000000000000000000000000000081526004016109f4906131de565b60405180910390fd5b610c0b565b3373ffffffffffffffffffffffffffffffffffffffff16600260003373ffffffffffffffffffffffffffffffffffffffff1673ffffffffffffffffffffffffffffffffffffffff16815260200190815260200160002060009054906101000a900473ffffffffffffffffffffffffffffffffffffffff1673ffffffffffffffffffffffffffffffffffffffff1614610acf576040517f08c379a0000000000000000000000000000000000000000000000000000000008152600401610ac690613296565b60405180910390fd5b600260003373ffffffffffffffffffffffffffffffffffffffff1673ffffffffffffffffffffffffffffffffffffffff16815260200190815260200160002060009054906101000a900473ffffffffffffffffffffffffffffffffffffffff1673ffffffffffffffffffffffffffffffffffffffff16635245f3bd6040518163ffffffff1660e01b8152600401602060405180830381865afa158015610b79573d6000803e3d6000fd5b505050506040513d601f19601f82011682018060405250810190610b9d91906130ad565b73ffffffffffffffffffffffffffffffffffffffff168573ffffffffffffffffffffffffffffffffffffffff1614610c0a576040517f08c379a0000000000000000000000000000000000000000000000000000000008152600401610c019061314c565b60405180910390fd5b5b610c39600d60000160009054906101000a900473ffffffffffffffffffffffffffffffffffffffff166110fc565b9050600073ffffffffffffffffffffffffffffffffffffffff168173ffffffffffffffffffffffffffffffffffffffff1603610caa576040517f08c379a0000000000000000000000000000000000000000000000000000000008152600401610ca190613328565b60405180910390fd5b6007819080600181540180825580915050600190039060005260206000200160009091909190916101000a81548173ffffffffffffffffffffffffffffffffffffffff021916908373ffffffffffffffffffffffffffffffffffffffff16021790555080600560008373ffffffffffffffffffffffffffffffffffffffff1673ffffffffffffffffffffffffffffffffffffffff16815260200190815260200160002060006101000a81548173ffffffffffffffffffffffffffffffffffffffff021916908373ffffffffffffffffffffffffffffffffffffffff16021790555084600660008373ffffffffffffffffffffffffffffffffffffffff1673ffffffffffffffffffffffffffffffffffffffff16815260200190815260200160002060006101000a81548173ffffffffffffffffffffffffffffffffffffffff021916908373ffffffffffffffffffffffffffffffffffffffff16021790555060008190508073ffffffffffffffffffffffffffffffffffffffff1663edf3e29e89898989308a6040518763ffffffff1660e01b8152600401610e5196959493929190613348565b6020604051808303816000875af1158015610e70573d6000803e3d6000fd5b505050506040513d601f19601f82011682018060405250810190610e9491906133cc565b610ed3576040517f08c379a0000000000000000000000000000000000000000000000000000000008152600401610eca90613445565b60405180910390fd5b7fd49738fe47a44aa2d22d13ae3619a4efba4dd917732549390d6fb0a85b71fcfd82878a8a604051610f089493929190613465565b60405180910390a1509695505050505050565b6060600b8054610f2a906134e7565b80601f0160208091040260200160405190810160405280929190818152602001828054610f56906134e7565b8015610fa35780601f10610f7857610100808354040283529160200191610fa3565b820191906000526020600020905b815481529060010190602001808311610f8657829003601f168201915b5050505050905090565b60056020528060005260406000206000915054906101000a900473ffffffffffffffffffffffffffffffffffffffff1681565b6060600480548060200260200160405190810160405280929190818152602001828054801561106457602002820191906000526020600020905b8160009054906101000a900473ffffffffffffffffffffffffffffffffffffffff1673ffffffffffffffffffffffffffffffffffffffff168152602001906001019080831161101a575b5050505050905090565b6060600a8054806020026020016040519081016040528092919081815260200182805480156110f257602002820191906000526020600020905b8160009054906101000a900473ffffffffffffffffffffffffffffffffffffffff1673ffffffffffffffffffffffffffffffffffffffff16815260200190600101908083116110a8575b5050505050905090565b6000808260601b90506040517f3d602d80600a3d3981f3363d3d373d3d3d363d7300000000000000000000000081528160148201527f5af43d82803e903d91602b57fd5bf3000000000000000000000000000000000060288201526037816000f09250507f117c72e6c25f0a072e36e148df71468ce2f3dbe7defec5b2c257a6e3eb65278c8260405161118f9190612c7a565b60405180910390a150919050565b6000600154905090565b606060005b6001548110156113205760036000600483815481106111ce576111cd613518565b5b9060005260206000200160009054906101000a900473ffffffffffffffffffffffffffffffffffffffff1673ffffffffffffffffffffffffffffffffffffffff1673ffffffffffffffffffffffffffffffffffffffff16815260200190815260200160002060009054906101000a900473ffffffffffffffffffffffffffffffffffffffff1673ffffffffffffffffffffffffffffffffffffffff168373ffffffffffffffffffffffffffffffffffffffff1603611313576004818154811061129a57611299613518565b5b9060005260206000200160009054906101000a900473ffffffffffffffffffffffffffffffffffffffff168282815181106112d8576112d7613518565b5b602002602001019073ffffffffffffffffffffffffffffffffffffffff16908173ffffffffffffffffffffffffffffffffffffffff16815250505b80806001019150506111ac565b50919050565b600b8054611333906134e7565b80601f016020809104026020016040519081016040528092919081815260200182805461135f906134e7565b80156113ac5780601f10611381576101008083540402835291602001916113ac565b820191906000526020600020905b81548152906001019060200180831161138f57829003601f168201915b505050505081565b6113bc612580565b6113c660006125fe565b565b60066020528060005260406000206000915054906101000a900473ffffffffffffffffffffffffffffffffffffffff1681565b60008073ffffffffffffffffffffffffffffffffffffffff163373ffffffffffffffffffffffffffffffffffffffff160361146b576040517f08c379a000000000000000000000000000000000000000000000000000000000815260040161146290613078565b60405180910390fd5b600073ffffffffffffffffffffffffffffffffffffffff16600c60000160009054906101000a900473ffffffffffffffffffffffffffffffffffffffff1673ffffffffffffffffffffffffffffffffffffffff16036114ff576040517f08c379a00000000000000000000000000000000000000000000000000000000081526004016114f6906135b9565b60405180910390fd5b600c60000160149054906101000a900460ff16611551576040517f08c379a00000000000000000000000000000000000000000000000000000000081526004016115489061364b565b60405180910390fd5b61157f600c60000160009054906101000a900473ffffffffffffffffffffffffffffffffffffffff166110fc565b9050600073ffffffffffffffffffffffffffffffffffffffff168173ffffffffffffffffffffffffffffffffffffffff16036115f0576040517f08c379a00000000000000000000000000000000000000000000000000000000081526004016115e7906136dd565b60405180910390fd5b6004819080600181540180825580915050600190039060005260206000200160009091909190916101000a81548173ffffffffffffffffffffffffffffffffffffffff021916908373ffffffffffffffffffffffffffffffffffffffff16021790555080600260008373ffffffffffffffffffffffffffffffffffffffff1673ffffffffffffffffffffffffffffffffffffffff16815260200190815260200160002060006101000a81548173ffffffffffffffffffffffffffffffffffffffff021916908373ffffffffffffffffffffffffffffffffffffffff16021790555033600360008373ffffffffffffffffffffffffffffffffffffffff1673ffffffffffffffffffffffffffffffffffffffff16815260200190815260200160002060006101000a81548173ffffffffffffffffffffffffffffffffffffffff021916908373ffffffffffffffffffffffffffffffffffffffff1602179055506001806000828254611761919061372c565b925050819055506000819050600115158173ffffffffffffffffffffffffffffffffffffffff16633f2f5ee233308760000151886020015189604001516040518663ffffffff1660e01b81526004016117be959493929190613760565b6020604051808303816000875af11580156117dd573d6000803e3d6000fd5b505050506040513d601f19601f8201168201806040525081019061180191906133cc565b151514611843576040517f08c379a000000000000000000000000000000000000000000000000000000000815260040161183a9061383a565b60405180910390fd5b7f46f5e3cee761854fc3892024ae7aa2c832007dff583603ce093f177ebd9c4c9682600c60000160009054906101000a900473ffffffffffffffffffffffffffffffffffffffff16856000015133876020015188604001516040516118ad9695949392919061385a565b60405180910390a150919050565b600781815481106118cb57600080fd5b906000526020600020016000915054906101000a900473ffffffffffffffffffffffffffffffffffffffff1681565b60008060009054906101000a900473ffffffffffffffffffffffffffffffffffffffff16905090565b600a818154811061193357600080fd5b906000526020600020016000915054906101000a900473ffffffffffffffffffffffffffffffffffffffff1681565b6000600d60000160009054906101000a900473ffffffffffffffffffffffffffffffffffffffff16905090565b60096020528060005260406000206000915090505481565b60036020528060005260406000206000915054906101000a900473ffffffffffffffffffffffffffffffffffffffff1681565b6000600c60000160009054906101000a900473ffffffffffffffffffffffffffffffffffffffff16905090565b60026020528060005260406000206000915054906101000a900473ffffffffffffffffffffffffffffffffffffffff1681565b6000611a45826113fb565b9050600081905060018173ffffffffffffffffffffffffffffffffffffffff166370a08231336040518263ffffffff1660e01b8152600401611a879190612c7a565b602060405180830381865afa158015611aa4573d6000803e3d6000fd5b505050506040513d601f19601f82011682018060405250810190611ac891906138e5565b14611b08576040517f08c379a0000000000000000000000000000000000000000000000000000000008152600401611aff9061395e565b60405180910390fd5b6000611b258460600151856080015133868860a00151600161077f565b90508173ffffffffffffffffffffffffffffffffffffffff16639dfbe3bf826040518263ffffffff1660e01b8152600401611b609190612c7a565b600060405180830381600087803b158015611b7a57600080fd5b505af1158015611b8e573d6000803e3d6000fd5b505050507f46f5e3cee761854fc3892024ae7aa2c832007dff583603ce093f177ebd9c4c9683600c60000160009054906101000a900473ffffffffffffffffffffffffffffffffffffffff1686600001513388602001518960400151604051611bfc9695949392919061385a565b60405180910390a15050919050565b60048181548110611c1b57600080fd5b906000526020600020016000915054906101000a900473ffffffffffffffffffffffffffffffffffffffff1681565b60606007805480602002602001604051908101604052809291908181526020018280548015611cce57602002820191906000526020600020905b8160009054906101000a900473ffffffffffffffffffffffffffffffffffffffff1673ffffffffffffffffffffffffffffffffffffffff1681526020019060010190808311611c84575b5050505050905090565b611ce0612580565b600073ffffffffffffffffffffffffffffffffffffffff168173ffffffffffffffffffffffffffffffffffffffff1603611d4f576040517f08c379a0000000000000000000000000000000000000000000000000000000008152600401611d46906139f0565b60405180910390fd5b611d58816125fe565b50565b6000806000806040518060400160405280600281526020017f7b200000000000000000000000000000000000000000000000000000000000008152509050606080600060085411611de1576040517f08c379a0000000000000000000000000000000000000000000000000000000008152600401611dd890613a5c565b60405180910390fd5b828760000151604051602001611df8929190613b04565b6040516020818303038152906040529250828760400151604051602001611e20929190613b6c565b604051602081830303815290604052925060005b600a8054905081101561219a57600a8181548110611e5557611e54613518565b5b9060005260206000200160009054906101000a900473ffffffffffffffffffffffffffffffffffffffff1695508573ffffffffffffffffffffffffffffffffffffffff16639abbede26040518163ffffffff1660e01b8152600401600060405180830381865afa158015611ecd573d6000803e3d6000fd5b505050506040513d6000823e3d601f19601f82011682018060405250810190611ef69190613c0f565b91508573ffffffffffffffffffffffffffffffffffffffff1663a564725e6040518163ffffffff1660e01b8152600401602060405180830381865afa158015611f43573d6000803e3d6000fd5b505050506040513d601f19601f82011682018060405250810190611f6791906130ad565b94508473ffffffffffffffffffffffffffffffffffffffff16633bb3a24d60016040518263ffffffff1660e01b8152600401611fa39190613c9d565b600060405180830381865afa158015611fc0573d6000803e3d6000fd5b505050506040513d6000823e3d601f19601f82011682018060405250810190611fe99190613c0f565b92508382604051602001611ffe929190613cde565b604051602081830303815290604052935083612058600960008973ffffffffffffffffffffffffffffffffffffffff1673ffffffffffffffffffffffffffffffffffffffff168152602001908152602001600020546126c2565b604051602001612069929190613d46565b6040516020818303038152906040529350838360405160200161208d929190613d9f565b60405160208183030381529060405293508573ffffffffffffffffffffffffffffffffffffffff166342966c68600960008973ffffffffffffffffffffffffffffffffffffffff1673ffffffffffffffffffffffffffffffffffffffff168152602001908152602001600020546040518263ffffffff1660e01b815260040161211691906129e1565b600060405180830381600087803b15801561213057600080fd5b505af1158015612144573d6000803e3d6000fd5b505050506000600960008873ffffffffffffffffffffffffffffffffffffffff1673ffffffffffffffffffffffffffffffffffffffff168152602001908152602001600020819055508080600101915050611e34565b50826040516020016121ac9190613df8565b6040516020818303038152906040529250826040516020016121ce9190613e44565b6040516020818303038152906040529250826040516020016121f09190613e90565b6040516020818303038152906040529250826040516020016122129190613edc565b604051602081830303815290604052925082600b908161223291906140a4565b5061223c876113fb565b9550600086905060018173ffffffffffffffffffffffffffffffffffffffff166370a08231336040518263ffffffff1660e01b815260040161227e9190612c7a565b602060405180830381865afa15801561229b573d6000803e3d6000fd5b505050506040513d601f19601f820116820180604052508101906122bf91906138e5565b146122ff576040517f08c379a00000000000000000000000000000000000000000000000000000000081526004016122f69061395e565b60405180910390fd5b600a600061230d91906128eb565b6000600881905550505050505050919050565b600080600090506000600960008673ffffffffffffffffffffffffffffffffffffffff1673ffffffffffffffffffffffffffffffffffffffff16815260200190815260200160002054036123f057600a849080600181540180825580915050600190039060005260206000200160009091909190916101000a81548173ffffffffffffffffffffffffffffffffffffffff021916908373ffffffffffffffffffffffffffffffffffffffff1602179055506001600860008282546123e4919061372c565b92505081905550612433565b600960008573ffffffffffffffffffffffffffffffffffffffff1673ffffffffffffffffffffffffffffffffffffffff1681526020019081526020016000205490505b808361243f919061372c565b600960008673ffffffffffffffffffffffffffffffffffffffff1673ffffffffffffffffffffffffffffffffffffffff168152602001908152602001600020819055508373ffffffffffffffffffffffffffffffffffffffff16637d6c32c13330866040518463ffffffff1660e01b81526004016124bf93929190614176565b600060405180830381600087803b1580156124d957600080fd5b505af11580156124ed573d6000803e3d6000fd5b5050505060008473ffffffffffffffffffffffffffffffffffffffff166323b872dd3330876040518463ffffffff1660e01b815260040161253093929190614176565b6020604051808303816000875af115801561254f573d6000803e3d6000fd5b505050506040513d601f19601f8201168201806040525081019061257391906133cc565b9050809250505092915050565b612588612790565b73ffffffffffffffffffffffffffffffffffffffff166125a66118fa565b73ffffffffffffffffffffffffffffffffffffffff16146125fc576040517f08c379a00000000000000000000000000000000000000000000000000000000081526004016125f3906141f9565b60405180910390fd5b565b60008060009054906101000a900473ffffffffffffffffffffffffffffffffffffffff169050816000806101000a81548173ffffffffffffffffffffffffffffffffffffffff021916908373ffffffffffffffffffffffffffffffffffffffff1602179055508173ffffffffffffffffffffffffffffffffffffffff168173ffffffffffffffffffffffffffffffffffffffff167f8be0079c531659141344cd1fd0a4f28419497f9722a3daafe3b4186f6b6457e060405160405180910390a35050565b6060600060016126d184612798565b01905060008167ffffffffffffffff8111156126f0576126ef612a17565b5b6040519080825280601f01601f1916602001820160405280156127225781602001600182028036833780820191505090505b509050600082602001820190505b600115612785578080600190039150507f3031323334353637383961626364656600000000000000000000000000000000600a86061a8153600a858161277957612778614219565b5b04945060008503612730575b819350505050919050565b600033905090565b600080600090507a184f03e93ff9f4daa797ed6e38ed64bf6a1f01000000000000000083106127f6577a184f03e93ff9f4daa797ed6e38ed64bf6a1f01000000000000000083816127ec576127eb614219565b5b0492506040810190505b6d04ee2d6d415b85acef81000000008310612833576d04ee2d6d415b85acef8100000000838161282957612828614219565b5b0492506020810190505b662386f26fc10000831061286257662386f26fc10000838161285857612857614219565b5b0492506010810190505b6305f5e100831061288b576305f5e100838161288157612880614219565b5b0492506008810190505b61271083106128b05761271083816128a6576128a5614219565b5b0492506004810190505b606483106128d357606483816128c9576128c8614219565b5b0492506002810190505b600a83106128e2576001810190505b80915050919050565b5080546000825590600052602060002090810190612909919061290c565b50565b5b8082111561292557600081600090555060010161290d565b5090565b6000604051905090565b600080fd5b600080fd5b600073ffffffffffffffffffffffffffffffffffffffff82169050919050565b60006129688261293d565b9050919050565b6129788161295d565b811461298357600080fd5b50565b6000813590506129958161296f565b92915050565b6000602082840312156129b1576129b0612933565b5b60006129bf84828501612986565b91505092915050565b6000819050919050565b6129db816129c8565b82525050565b60006020820190506129f660008301846129d2565b92915050565b600080fd5b600080fd5b6000601f19601f8301169050919050565b7f4e487b7100000000000000000000000000000000000000000000000000000000600052604160045260246000fd5b612a4f82612a06565b810181811067ffffffffffffffff82111715612a6e57612a6d612a17565b5b80604052505050565b6000612a81612929565b9050612a8d8282612a46565b919050565b600067ffffffffffffffff821115612aad57612aac612a17565b5b612ab682612a06565b9050602081019050919050565b82818337600083830152505050565b6000612ae5612ae084612a92565b612a77565b905082815260208101848484011115612b0157612b00612a01565b5b612b0c848285612ac3565b509392505050565b600082601f830112612b2957612b286129fc565b5b8135612b39848260208601612ad2565b91505092915050565b612b4b816129c8565b8114612b5657600080fd5b50565b600081359050612b6881612b42565b92915050565b60008115159050919050565b612b8381612b6e565b8114612b8e57600080fd5b50565b600081359050612ba081612b7a565b92915050565b60008060008060008060c08789031215612bc357612bc2612933565b5b600087013567ffffffffffffffff811115612be157612be0612938565b5b612bed89828a01612b14565b965050602087013567ffffffffffffffff811115612c0e57612c0d612938565b5b612c1a89828a01612b14565b9550506040612c2b89828a01612986565b9450506060612c3c89828a01612986565b9350506080612c4d89828a01612b59565b92505060a0612c5e89828a01612b91565b9150509295509295509295565b612c748161295d565b82525050565b6000602082019050612c8f6000830184612c6b565b92915050565b600081519050919050565b600082825260208201905092915050565b60005b83811015612ccf578082015181840152602081019050612cb4565b60008484015250505050565b6000612ce682612c95565b612cf08185612ca0565b9350612d00818560208601612cb1565b612d0981612a06565b840191505092915050565b60006020820190508181036000830152612d2e8184612cdb565b905092915050565b600081519050919050565b600082825260208201905092915050565b6000819050602082019050919050565b612d6b8161295d565b82525050565b6000612d7d8383612d62565b60208301905092915050565b6000602082019050919050565b6000612da182612d36565b612dab8185612d41565b9350612db683612d52565b8060005b83811015612de7578151612dce8882612d71565b9750612dd983612d89565b925050600181019050612dba565b5085935050505092915050565b60006020820190508181036000830152612e0e8184612d96565b905092915050565b600080fd5b600080fd5b600060c08284031215612e3657612e35612e16565b5b612e4060c0612a77565b9050600082013567ffffffffffffffff811115612e6057612e5f612e1b565b5b612e6c84828501612b14565b600083015250602082013567ffffffffffffffff811115612e9057612e8f612e1b565b5b612e9c84828501612b14565b602083015250604082013567ffffffffffffffff811115612ec057612ebf612e1b565b5b612ecc84828501612b14565b604083015250606082013567ffffffffffffffff811115612ef057612eef612e1b565b5b612efc84828501612b14565b606083015250608082013567ffffffffffffffff811115612f2057612f1f612e1b565b5b612f2c84828501612b14565b60808301525060a0612f4084828501612b59565b60a08301525092915050565b600060208284031215612f6257612f61612933565b5b600082013567ffffffffffffffff811115612f8057612f7f612938565b5b612f8c84828501612e20565b91505092915050565b600060208284031215612fab57612faa612933565b5b6000612fb984828501612b59565b91505092915050565b60008060408385031215612fd957612fd8612933565b5b6000612fe785828601612986565b9250506020612ff885828601612b59565b9150509250929050565b61300b81612b6e565b82525050565b60006020820190506130266000830184613002565b92915050565b7f616464726573732830292063616e6e6f7420626520616e206f776e6572000000600082015250565b6000613062601d83612ca0565b915061306d8261302c565b602082019050919050565b6000602082019050818103600083015261309181613055565b9050919050565b6000815190506130a78161296f565b92915050565b6000602082840312156130c3576130c2612933565b5b60006130d184828501613098565b91505092915050565b7f50726f7669646564206d696e746572206973206e6f7420746865204e4654206f60008201527f776e657221000000000000000000000000000000000000000000000000000000602082015250565b6000613136602583612ca0565b9150613141826130da565b604082019050919050565b6000602082019050818103600083015261316581613129565b9050919050565b7f50726f7669646564204e465420636f6e747261637420646f6573206e6f74206560008201527f7869737400000000000000000000000000000000000000000000000000000000602082015250565b60006131c8602483612ca0565b91506131d38261316c565b604082019050919050565b600060208201905081810360008301526131f7816131bb565b9050919050565b7f43616c6c20636f6d696e672066726f6d2061206e6f6e206578697374696e672060008201527f4e465420636f6e7472616374206465706c6f796564206279207468697320666160208201527f63746f7279000000000000000000000000000000000000000000000000000000604082015250565b6000613280604583612ca0565b915061328b826131fe565b606082019050919050565b600060208201905081810360008301526132af81613273565b9050919050565b7f6465706c6f794552433230436f6e74726163743a204661696c656420746f206460008201527f65706c6f79206e657720455243323020636f6e74726163740000000000000000602082015250565b6000613312603883612ca0565b915061331d826132b6565b604082019050919050565b6000602082019050818103600083015261334181613305565b9050919050565b600060c08201905081810360008301526133628189612cdb565b905081810360208301526133768188612cdb565b90506133856040830187612c6b565b6133926060830186612c6b565b61339f6080830185612c6b565b6133ac60a08301846129d2565b979650505050505050565b6000815190506133c681612b7a565b92915050565b6000602082840312156133e2576133e1612933565b5b60006133f0848285016133b7565b91505092915050565b7f445420696e697469616c697a6174696f6e206661696c65642100000000000000600082015250565b600061342f601983612ca0565b915061343a826133f9565b602082019050919050565b6000602082019050818103600083015261345e81613422565b9050919050565b600060808201905061347a6000830187612c6b565b6134876020830186612c6b565b81810360408301526134998185612cdb565b905081810360608301526134ad8184612cdb565b905095945050505050565b7f4e487b7100000000000000000000000000000000000000000000000000000000600052602260045260246000fd5b600060028204905060018216806134ff57607f821691505b602082108103613512576135116134b8565b5b50919050565b7f4e487b7100000000000000000000000000000000000000000000000000000000600052603260045260246000fd5b7f4465706c6f794552373231436f6e74726163743a20696e76616c69642062617360008201527f6520616464726573730000000000000000000000000000000000000000000000602082015250565b60006135a3602983612ca0565b91506135ae82613547565b604082019050919050565b600060208201905081810360008301526135d281613596565b9050919050565b7f4465706c6f79455243373231436f6e74726163743a204261736520636f6e747260008201527f616374206e6f7420616374697665000000000000000000000000000000000000602082015250565b6000613635602e83612ca0565b9150613640826135d9565b604082019050919050565b6000602082019050818103600083015261366481613628565b9050919050565b7f6465706c6f79455243373231436f6e74726163743a204661696c656420746f2060008201527f6465706c6f79206e65772045524337323120636f6e7472616374000000000000602082015250565b60006136c7603a83612ca0565b91506136d28261366b565b604082019050919050565b600060208201905081810360008301526136f6816136ba565b9050919050565b7f4e487b7100000000000000000000000000000000000000000000000000000000600052601160045260246000fd5b6000613737826129c8565b9150613742836129c8565b925082820190508082111561375a576137596136fd565b5b92915050565b600060a0820190506137756000830188612c6b565b6137826020830187612c6b565b81810360408301526137948186612cdb565b905081810360608301526137a88185612cdb565b905081810360808301526137bc8184612cdb565b90509695505050505050565b7f466163746f72793a20436f756c64206e6f7420696e697469616c697a65204e6560008201527f77204e465420636f6e7472616374000000000000000000000000000000000000602082015250565b6000613824602e83612ca0565b915061382f826137c8565b604082019050919050565b6000602082019050818103600083015261385381613817565b9050919050565b600060c08201905061386f6000830189612c6b565b61387c6020830188612c6b565b818103604083015261388e8187612cdb565b905061389d6060830186612c6b565b81810360808301526138af8185612cdb565b905081810360a08301526138c38184612cdb565b9050979650505050505050565b6000815190506138df81612b42565b92915050565b6000602082840312156138fb576138fa612933565b5b6000613909848285016138d0565b91505092915050565b7f4e4654206e6f74206d696e746564000000000000000000000000000000000000600082015250565b6000613948600e83612ca0565b915061395382613912565b602082019050919050565b600060208201905081810360008301526139778161393b565b9050919050565b7f4f776e61626c653a206e6577206f776e657220697320746865207a65726f206160008201527f6464726573730000000000000000000000000000000000000000000000000000602082015250565b60006139da602683612ca0565b91506139e58261397e565b604082019050919050565b60006020820190508181036000830152613a09816139cd565b9050919050565b7f6e6f20746f6b656e20616363756d756c61746564000000000000000000000000600082015250565b6000613a46601483612ca0565b9150613a5182613a10565b602082019050919050565b60006020820190508181036000830152613a7581613a39565b9050919050565b600081905092915050565b6000613a9282612c95565b613a9c8185613a7c565b9350613aac818560208601612cb1565b80840191505092915050565b7f2200000000000000000000000000000000000000000000000000000000000000815250565b7f22203a2000000000000000000000000000000000000000000000000000000000815250565b6000613b108285613a87565b9150613b1b82613ab8565b600182019150613b2b8284613a87565b9150613b3682613ade565b6004820191508190509392505050565b7f2c20000000000000000000000000000000000000000000000000000000000000815250565b6000613b788285613a87565b9150613b848284613a87565b9150613b8f82613b46565b6002820191508190509392505050565b6000613bb2613bad84612a92565b612a77565b905082815260208101848484011115613bce57613bcd612a01565b5b613bd9848285612cb1565b509392505050565b600082601f830112613bf657613bf56129fc565b5b8151613c06848260208601613b9f565b91505092915050565b600060208284031215613c2557613c24612933565b5b600082015167ffffffffffffffff811115613c4357613c42612938565b5b613c4f84828501613be1565b91505092915050565b6000819050919050565b6000819050919050565b6000613c87613c82613c7d84613c58565b613c62565b6129c8565b9050919050565b613c9781613c6c565b82525050565b6000602082019050613cb26000830184613c8e565b92915050565b7f22203a207b22616d6f756e7422203a2000000000000000000000000000000000815250565b6000613cea8285613a87565b9150613cf582613ab8565b600182019150613d058284613a87565b9150613d1082613cb8565b6010820191508190509392505050565b7f2c20226f6c645f70617373706f727422203a2000000000000000000000000000815250565b6000613d528285613a87565b9150613d5e8284613a87565b9150613d6982613d20565b6013820191508190509392505050565b7f7d2c000000000000000000000000000000000000000000000000000000000000815250565b6000613dab8285613a87565b9150613db78284613a87565b9150613dc282613d79565b6002820191508190509392505050565b7f2222000000000000000000000000000000000000000000000000000000000000815250565b6000613e048284613a87565b9150613e0f82613dd2565b60028201915081905092915050565b7f3a00000000000000000000000000000000000000000000000000000000000000815250565b6000613e508284613a87565b9150613e5b82613e1e565b60018201915081905092915050565b7f7b7d000000000000000000000000000000000000000000000000000000000000815250565b6000613e9c8284613a87565b9150613ea782613e6a565b60028201915081905092915050565b7f7d00000000000000000000000000000000000000000000000000000000000000815250565b6000613ee88284613a87565b9150613ef382613eb6565b60018201915081905092915050565b60008190508160005260206000209050919050565b60006020601f8301049050919050565b600082821b905092915050565b600060088302613f647fffffffffffffffffffffffffffffffffffffffffffffffffffffffffffffffff82613f27565b613f6e8683613f27565b95508019841693508086168417925050509392505050565b6000613fa1613f9c613f97846129c8565b613c62565b6129c8565b9050919050565b6000819050919050565b613fbb83613f86565b613fcf613fc782613fa8565b848454613f34565b825550505050565b600090565b613fe4613fd7565b613fef818484613fb2565b505050565b5b8181101561401357614008600082613fdc565b600181019050613ff5565b5050565b601f8211156140585761402981613f02565b61403284613f17565b81016020851015614041578190505b61405561404d85613f17565b830182613ff4565b50505b505050565b600082821c905092915050565b600061407b6000198460080261405d565b1980831691505092915050565b6000614094838361406a565b9150826002028217905092915050565b6140ad82612c95565b67ffffffffffffffff8111156140c6576140c5612a17565b5b6140d082546134e7565b6140db828285614017565b600060209050601f83116001811461410e57600084156140fc578287015190505b6141068582614088565b86555061416e565b601f19841661411c86613f02565b60005b828110156141445784890151825560018201915060208501945060208101905061411f565b86831015614161578489015161415d601f89168261406a565b8355505b6001600288020188555050505b505050505050565b600060608201905061418b6000830186612c6b565b6141986020830185612c6b565b6141a560408301846129d2565b949350505050565b7f4f776e61626c653a2063616c6c6572206973206e6f7420746865206f776e6572600082015250565b60006141e3602083612ca0565b91506141ee826141ad565b602082019050919050565b60006020820190508181036000830152614212816141d6565b9050919050565b7f4e487b7100000000000000000000000000000000000000000000000000000000600052601260045260246000fdfea2646970667358221220e90d89138bb0b27bf3fbf5936015246188725aa35d54f897714e798385db7df964736f6c634300081c0033",
  "linkReferences": {},
  "deployedLinkReferences": {}
}